:100000000C9456000C9457010C9457010C94570112
:100010000C941F010C9457010C9439010C94570156
:100020000C9457010C9457010C9457010C945701F0
:100030000C9457010C9457010C9457010C945701E0
:100040000C9457010C9457010C9457010C945701D0
:100050000C9457010C9457010C9457010C945701C0
:100060000C9457010C9457010C9457010C945701B0
:100070000C9457010C9457010C9457010C945701A0
:100080000C9457010C9457010C9457010C94570190
:100090000C9457010C9457010C9457010C94570180
:1000A0002800280280280228040002B211241FBE62
:1000B000CFEFCDBFDFE3DEBFE0EAF0E040E017C006
:1000C000B591A59135912591059107FD0CC09591AC
:1000D0008591EF01F92FE82F05900D92A217B30734
:1000E000D9F7FE0104C01D92A217B307E1F7EC3A5D
:1000F000F40731F70E9480000C947E00F894FFCF43
:10010000CF93DF93CDB7DEB72A97CDBFDEBF0E9476
:10011000F30078948AE0E4EAF2E4DE0111960190BB
:100120000D928A95E1F78FEF80934104E0E0F4E0CF
:1001300080E1828384898860848B82E0848BE0EA1A
:10014000F4E090E2918385898860858B958300EA4D
:1001500014E060E220E434E07FEF49E050E0E0E5C5
:10016000F0E039C0809100289091012889349105F0
:1001700044F5809100289091012887709927892B58
:1001800019F5D90116967C93809100289091012849
:1001900099230CF407969595879595958795959550
:1001A0008795DA01A81BB90BCD01A1E0B0E0AC0F37
:1001B000BD1F8A0F9B1FDC018C91D90115968C9372
:1001C00003C0D80117966C938081816080838895E5
:1001D00080818E7F80838091022890910328892BD3
:0601E00009F0C0CFF8CFCA
:1001E600CF93DF9360917C006E7F8CE790E00E9456
:1001F6004C01E0E6F0E0838186FDFDCFC0E6D0E06D
:100206006C8D6B7F8CE790E00E944C016C8D616079
:100216008CE790E00E944C01E0E4F1E081818111DD
:10022600FDCFE0E4F1E082E0878381E0828B89E51F
:08023600808BDF91CF91089548
:10023E001F920F920FB60F9211248F939F9381E00E
:10024E00809353018091002890910128019680930C
:10025E000028909301289F918F910F900FBE0F90C1
:04026E001F90189530
:100272001F920F920FB60F9211248F938FEF8093DC
:10028200090410920228109203288F910F900FBE3A
:060292000F901F9018956B
:0C029800DC0128ED209334006C930895E5
:0A02A400EF83DDD7B3777FC3FFF7C8
:0402AE000C940000AC
:0202B200010049
:00000001FF
